:100000000C9434000C9451000C9451000C94510049
:100010000C9451000C9451000C9451000C9453001A
:100020000C9451000C9451000C9451000C9451000C
:100030000C9451000C9451000C9451000C945100FC
:100040000C9451000C9451000C9473040C94DD0436
:100050000C949F040C9451000C9451000C9451008A
:100060000C9451000C94510011241FBECFEFD8E026
:10007000DEBFCDBF13E0A0E0B1E0E6E7F6E202C0EC
:1000800005900D92A437B107D9F723E0A4E7B3E0B8
:1000900001C01D92AC39B207E1F70E9422080C940E
:1000A00039130C9400001F920F920FB60F92112477
:1000B0008F939F93AF93BF93809174039091750337
:1000C000A0917603B091770388519C4FAF4FBF4FFB
:1000D0008093740390937503A0937603B093770392
:1000E0008091790390917A03A0917B03B0917C0376
:1000F0000196A11DB11D8093790390937A03A0937B
:100100007B03B0937C03BF91AF919F918F910F9030
:100110000FBE0F901F90189580917803811114C025
:10012000789482E08093B000E0E7F0E08081826024
:1001300080838AEF8093B3001092B20084E08093B2
:10014000B10081E080937803089584E08093B1004A
:100150000895E0E7F0E080818D7F808360917903EE
:1001600070917A0380917B0390917C0320812260BF
:1001700020830895E0E7F0E080818D7F80832091E7
:10018000B2008091740390917503A0917603B091B1
:10019000770330813260308326952695BC01CD01EE
:1001A000620F711D811D911D0895E0E7F0E020812F
:1001B0002D7F20836093790370937A0380937B0370
:1001C00090937C03808182608083089510927803ED
:1001D0001092B1000895219A229A239A259A2A9A78
:1001E00029988EE78CBD08958EBD0DB407FEFDCF16
:1001F0000895299A199BFECF29980895FC0166233A
:1002000071F0A281B3812C9181E090E0068002C060
:10021000880F991F0A94E2F7822B8C930895A2818C
:10022000B3814C9121E030E0C901068002C0880F03
:10023000991F0A94E2F7809584238C930895BF92C6
:10024000CF92DF92EF92FF920F931F93CF93DF93A2
:10025000CDB7DEB72F970FB6F894DEBF0FBECDBF78
:100260006C017B01B42E122F0E948C00FE0131968E
:100270008FE0DF011D928A95E9F7FC82EB82BF8255
:100280001F87B5E2EB16F10449F484E290E09A830B
:10029000898383E290E09E838D8319C088E2E8160B
:1002A000F10449F487E290E09A83898386E290E042
:1002B0009E838D830CC0ABE2EA16F10441F48AE21E
:1002C00090E09A83898389E290E09E838D83602FFA
:1002D0006470CE0101960E94FE00037008878FE0D3
:1002E000FE013196D60101900D928A95E1F7C60183
:1002F0002F960FB6F894DEBF0FBECDBFDF91CF9122
:100300001F910F91FF90EF90DF90CF90BF900895D5
:10031000FC018781833071F4A481B5818C9190E0D8
:10032000068002C0959587950A94E2F780FD04C087
:1003300081E008958585089582E00895CF92DF9247
:10034000EF92FF921F93CF93DF93EC018F81813067
:1003500009F46AC018F0823091F19AC0EC81FD81F5
:10036000108181E090E00E8002C0880F991F0A94EE
:10037000E2F718231D868C851817F9F00E94A90052
:10038000C884D984EA84FB849B01AC012C193D0903
:100390004E095F0969017A0133E3C316D104E10410
:1003A000F10438F0112319F022E02D8702C021E07A
:1003B0002D87688779878A879B871C8769C0EC812E
:1003C000FD81108181E090E00E8002C0880F991FAE
:1003D0000A94E2F718231D868C851817F9F00E94FD
:1003E000A900C884D984EA84FB849B01AC012C1940
:1003F0003D094E095F0969017A0133E3C316D1044F
:10040000E104F10438F0112319F022E02D8702C035
:1004100021E02D87688779878A879B871C878D8550
:100420008230B1F51D8634C0EC81FD81108181E000
:1004300090E00E8002C0880F991F0A94E2F71823FB
:100440001D868C851817F9F00E94A900C884D984EC
:10045000EA84FB849B01AC012C193D094E095F091C
:1004600069017A0133E3C316D104E104F10438F0E1
:10047000112319F022E02D8702C021E02D87688723
:1004800079878A879B871C878D85813009F41D8633
:10049000DF91CF911F91FF90EF90DF90CF90089563
:1004A000CF92DF92EF92FF921F93CF93DF93EC01F5
:1004B000EC81FD81108181E090E00E8002C0880F08
:1004C000991F0A94E2F718231D868C851817F9F0F6
:1004D0000E94A900C884D984EA84FB849B01AC01F2
:1004E0002C193D094E095F0969017A0133E3C316EE
:1004F000D104E104F10438F0112319F022E02D8732
:1005000002C021E02D87688779878A879B871C87AF
:100510008D85823009F41D86DF91CF911F91FF9068
:10052000EF90DF90CF900895CF92DF92EF92FF92FD
:100530001F93CF93DF93EC01EC81FD81108181E06B
:1005400090E00E8002C0880F991F0A94E2F71823EA
:100550001D868C851817F9F00E94A900C884D984DB
:10056000EA84FB849B01AC012C193D094E095F090B
:1005700069017A0133E3C316D104E104F10438F0D0
:10058000112319F022E02D8702C021E02D87688712
:1005900079878A879B871C878D85813009F41D8622
:1005A000DF91CF911F91FF90EF90DF90CF90089552
:1005B000CF92DF92EF92FF921F93CF93DF93EC01E4
:1005C000EC81FD81108181E090E00E8002C0880FF7
:1005D000991F0A94E2F718231D868C851817F9F0E5
:1005E0000E94A900C884D984EA84FB849B01AC01E1
:1005F0002C193D094E095F0969017A0133E3C316DD
:10060000D104E104F10438F0112319F022E02D8720
:1006100002C021E02D87688779878A879B871C879E
:10062000DF91CF911F91FF90EF90DF90CF900895D1
:10063000DC011496ED91FC911597208130E0F901D1
:1006400016960C9002C0F595E7950A94E2F7E0FD46
:1006500002C081E0089582E00895AF92BF92CF92E8
:10066000DF92EF92FF920F931F93CF93DF931F922E
:10067000CDB7DEB77C015B018A0169011982DA011D
:100680001D921C92FC01848195810E945F05039755
:1006900008F441C021E030E041E050E0BE016F5F6E
:1006A0007F4FD70114968D919C9115970E94430519
:1006B000892B89F1298122232CF4D701ED91FC911A
:1006C000208311C0F80180819181AC014F5F5F4FA1
:1006D00051834083F501E80FF91F2083D701ED9185
:1006E000FC9180818983F801608171819601261BCC
:1006F000370B6A0D7B1D41E050E0D70114968D91B8
:100700009C9115970E944305F80120813181820F49
:10071000931F9183808389810F90DF91CF911F91E7
:100720000F91FF90EF90DF90CF90BF90AF90089522
:100730000F931F93CF93DF9300D0CDB7DEB78C011B
:1007400049832A83DC011296ED91FC911397607F17
:1007500016968C911697682B608312966D917C91FA
:10076000139721E030E041E050E014968D919C9188
:1007700015970E94490521E030E041E050E0BE01BC
:100780006F5F7F4FF801848195810E94490521E0C8
:1007900030E041E050E0BE016E5F7F4FD80114961B
:1007A0008D919C9115970E9449050F900F90DF91B4
:1007B000CF911F910F910895242F462F60E90E9439
:1007C00098030895242F462F60E80E949803089507
:1007D000242F462F60EB0E9498030895DC011296A7
:1007E000ED91FC91139710820895CF93DF930097BA
:1007F000F9F0DC01ED91FC913097D1F0EC018081B2
:100800009181009711F00E94A012E881F981828104
:100810009381009711F00E94A0128881998104961B
:100820000E946B05888199810E94A012198218820A
:10083000DF91CF910895BF92CF92DF92EF92FF9216
:100840000F931F93CF93DF9300D0CDB7DEB7B82EB1
:1008500087E090E00E9408126C019A838983892BBB
:10086000A1F181E090E00E940812F601918380835B
:1008700081E090E00E940812F60193838283E12CCC
:10088000F12C00E011E020E130E040E050E060E0D9
:1008900070E089E693E00E94A505F60195838483C4
:1008A000E981FA8180819181892B41F08281938154
:1008B000892B21F084819581892B21F4CE01019629
:1008C0000E94F503E981FA81B68289819A810F90AD
:1008D0000F90DF91CF911F910F91FF90EF90DF90DC
:1008E000CF90BF9008951F920F920FB60F921124D0
:1008F0002F933F934F935F936F937F938F939F9328
:10090000AF93BF93EF93FF9380917F039091800308
:1009100041E050E066EC70E00E942F09FF91EF91FA
:10092000BF91AF919F918F917F916F915F914F9107
:100930003F912F910F900FBE0F901F9018951F920F
:100940000F920FB60F9211242F933F934F935F9303
:100950006F937F938F939F93AF93BF93EF93FF9387
:1009600080918103909182030E94260A892BA1F035
:100970008091C00085FD0BC080918103909182031E
:1009800041E050E066EC70E00E94A20905C0E1EC95
:10099000F0E0808180628083FF91EF91BF91AF9101
:1009A0009F918F917F916F915F914F913F912F9187
:1009B0000F900FBE0F901F9018951F920F920FB6B9
:1009C0000F9211242F933F934F935F936F937F93D5
:1009D0008F939F93AF93BF93EF93FF938091810386
:1009E000909182030E94260A892B51F08091810305
:1009F0009091820341E050E066EC70E00E94A20911
:100A0000E1ECF0E080818F7D8083FF91EF91BF91D9
:100A1000AF919F918F917F916F915F914F913F9196
:100A20002F910F900FBE0F901F901895611580E1C8
:100A3000780760F076956795E0ECF0E080818D7F37
:100A40008083611580E1780730F00895E0ECF0E0F4
:100A50008081826080836093C4007093C500089594
:100A6000009739F0672B29F01416150614F4FC01D1
:100A7000108281E090E008950895E1ECF0E080813B
:100A8000806280830895FC01828193810E94E40941
:100A900008950F931F93CF93DF938C01FC01848102
:100AA00095810E94550AEC01892B19F4C8010E9416
:100AB0003D05CE01DF91CF911F910F910895FC016B
:100AC000828193810E94260A0895FC018481958188
:100AD0000E94260A0895CF93DF93EC01892B91F1B0
:100AE00088819981009771F102960E94F40A8881A9
:100AF000998104960E94F40AE881F98180819181AC
:100B0000FC01EE0FFF1FE80FF91FEE0FFF1FE35868
:100B1000FC4F13821282E881F98180819181FC016E
:100B2000EE0FFF1FE80FF91FEE0FFF1FE358FC4FFA
:100B300015821482888199810E94A01219821882DC
:100B40001092C100DF91CF9108958F929F92AF9242
:100B5000BF92CF92DF92EF92FF920F931F93CF93AA
:100B6000DF9300D0CDB7DEB75B016A014901009782
:100B700009F491C0FC018081803309F08FC080911D
:100B8000810390918203892B09F08BC080917F03B0
:100B900090918003892B09F087C086E090E00E9445
:100BA00008129A838983009709F472C0FC011182AC
:100BB0001082A114B10449F4A7014170552761E0E6
:100BC00070E0C8010E94110B5C01C114D10449F40A
:100BD000A7014170552761E070E0C8010E94110B28
:100BE0006C01A981BA811596BC92AE9214971396A6
:100BF000DC92CE9212978D919C911197FC01EE0F91
:100C0000FF1FE80FF91FEE0FFF1FE358FC4FD382C1
:100C1000C2828D919C91119714962D913C911597BC
:100C2000FC01EE0FFF1FE80FF91FEE0FFF1FE35847
:100C3000FC4F3583248312968D919C911397892BB9
:100C400031F014968D919C911597892B21F4CE014A
:100C500001960E946B0589819A81892BC9F078944D
:100C60001092C100B40189819A810E941605C701C2
:100C700083709927892B29F4E1ECF0E08081806969
:100C80008083E1FC05C0E1ECF0E080818864808332
:100C900089819A810BC080E090E008C080E090E0FC
:100CA00005C080E090E002C080E090E00F900F90DF
:100CB000DF91CF911F910F91FF90EF90DF90CF9038
:100CC000BF90AF909F908F9008950F93CF93DF9335
:100CD000EC018EE1FE0111928A95E9F700E022E431
:100CE00040E068E270E0CE010E941F0123E441E091
:100CF00068E270E0CE010F960E941F01CE01DF91E5
:100D0000CF910F910895EF92FF920F931F93CF937E
:100D1000DF93EC017B010E949E01CE010E948801BD
:100D2000813031F44FE76E85C7010E94DC030AC0B1
:100D3000CE010E948801823029F44FE76E85C701F9
:100D40000E94E2038E01015F1F4FC8010E949E01B5
:100D5000C8010E948801813031F44FE76D8DC701D1
:100D60000E94DC030AC0C8010E948801823029F475
:100D70004FE76D8DC7010E94E203DF91CF911F9174
:100D80000F91FF90EF9008950F931F93CF93DF93F0
:100D9000EC018B010E949E01CE010E9488018130EE
:100DA00031F44FE76E85C8010E94DC030AC0CE0112
:100DB0000E948801823029F44FE76E85C8010E94A5
:100DC000E203DF91CF911F910F910895811106C029
:100DD000E3E8F3E08081806880830895813128F51D
:100DE00029E3829F212D1124269530E02F5F3F4F6C
:100DF000F901ED57FC4F90E00197877090789923A7
:100E000024F40197886F9F6F019641E050E0BA018A
:100E100002C0660F771F8A95E2F7CB01D901AD5763
:100E2000BC4F9C91892B80830895813131F4E3E894
:100E3000F3E08381886083830895823131F4E3E8AD
:100E4000F3E083818068838308958733C8F48351F6
:100E5000E82FE695E695F0E0E957FC4F837090E0C7
:100E6000880F991F019621E030E0A90102C0440FCC
:100E7000551F8A95E2F7CA019081892B80830895D6
:100E8000873331F4E3E8F3E085858460858708954E
:100E9000883331F4E3E8F3E085858062858708953F
:100EA000813480F4E3E8F3E0895321E030E0B901D4
:100EB00002C0660F771F8A95E2F7CB019685892BD2
:100EC00086870895893478F4E3E8F3E0815421E0DB
:100ED00030E0A90102C0440F551F8A95E2F7CA010C
:100EE0009785892B87870895893418F09CE8981B8B
:100EF000892F811106C0E3E8F3E080818068808358
:100F00000895813128F529E3829F212D112426950A
:100F100030E02F5F3F4FF901ED57FC4F90E0019714
:100F200087709078992324F40197886F9F6F0196BA
:100F300041E050E0BA0102C0660F771F8A95E2F7E0
:100F4000CB01D901AD57BC4F9C91892B808308956B
:100F5000813131F4E3E8F3E083818860838308958D
:100F6000823131F4E3E8F3E083818068838308957C
:100F70008733C8F48351E82FE695E695F0E0E9570A
:100F8000FC4F837090E0880F991F019621E030E0BC
:100F9000A90102C0440F551F8A95E2F7CA0190814A
:100FA000892B80830895873331F4E3E8F3E0858566
:100FB000846085870895883331F4E3E8F3E085851C
:100FC000806285870895813480F4E3E8F3E08953F3
:100FD00021E030E0B90102C0660F771F8A95E2F781
:100FE000CB019685892B86870895893478F4E3E8C8
:100FF000F3E0815421E030E0A90102C0440F551F05
:101000008A95E2F7CA019785892B878708950F9300
:101010001F93CF93DF932A9A8091830386600E9467
:10102000F400C4E8D3E003E913E089910E94F400DE
:10103000C017D107D1F70E94F900DF91CF911F911E
:101040000F9108950E948C000E94EB0007E810E0C9
:10105000C12CD12C7601C3E9D3E00E94A900DC01A8
:10106000CB018C199D09AE09BF09853F9140A105AF
:10107000B105F8F0E3E8F3E01192EC17FD07E1F7B2
:10108000580181E0A81AB108802F0E9474078A2DA8
:101090000E9474078FEF8A0D0E94740760E070E071
:1010A00080E090E00E9407080E94A9006B017C018B
:1010B000850189E190E0EFE3FCE93197F1F700C0A9
:1010C00000002A98EFE9FFE03197F1F700C0000037
:1010D0002A9A019781F7C1CF2A9A84E00E94F400EE
:1010E0008FEF0E94F4008FEF0E94F4008FEF0E94B8
:1010F000F4008FEF0E94F4008FEF0E94F4008FEF56
:101100000E94F4008FEF0E94F4008FEF0E94F40021
:101110008FEF0E94F4008FEF0E94F4008FEF0E9487
:10112000F4008FEF0E94F4008FEF0E94F4008FEF25
:101130000E94F4008FEF0E94F4000E94F9000895CD
:101140002A988FE090E02FEF2EBD0DB407FEFDCF63
:10115000299A199BFECFEFE3F6E03197F1F700C033
:1011600000002998FFEF39E648E1F1503040404057
:10117000E1F700C00000019739F75A9A5FEF83ED5D
:1011800090E3515080409040E1F700C000001EBC49
:101190000DB407FEFDCF299A199BFECFEFE3F6E0D1
:1011A0003197F1F700C0000029988FE090E02FEF11
:1011B0002EBD0DB407FEFDCF299A199BFECFEFE39C
:1011C000F6E03197F1F700C000002998FFEF39E60B
:1011D00048E1F15030404040E1F700C00000019785
:1011E00039F729985FEF83ED90E3515080409040AC
:1011F000E1F700C000002A9AEFEFF3ED20E3E150A1
:10120000F0402040E1F700C000002A9808952A9895
:1012100080E190E01EBC0DB407FEFDCF0197D1F731
:10122000299A199BFECF8FE396E00197F1F700C052
:10123000000029989FEF23ED80E3915020408040EB
:10124000E1F700C000002A9A9FEF23ED80E3915060
:1012500020408040E1F700C000002A980895AF9236
:10126000BF92CF92DF92EF92FF920F931F93CF9393
:10127000DF93FC01A681B78100851185228133812E
:1012800079014217530708F47A010E0D1F1D84815E
:1012900095810817190710F0008111810A171B07A3
:1012A00061F4428540FF2AC0A8014E0D5F1D48171A
:1012B000590738F14081518124C0A12CB12C6B0118
:1012C000EF01E216F30688F4A90160E070E0C801BE
:1012D0000E9432138A819B818E199F09A701B60152
:1012E000800F911F0E94291304C0A701C8010E940A
:1012F0002913198708878A2D9B2D09C08FEF9FEF2F
:1013000006C057834683AA24A394B12CD8CFDF917B
:10131000CF911F910F91FF90EF90DF90CF90BF90F2
:10132000AF900895FC012481358180819181A901CC
:10133000481B590BCA01628173810E946E11CB0157
:10134000019708950F931F93CF93DF93FC0126819C
:101350003781808591858217930779F1A281B381C6
:101360002A0F3B1F378326838481958128173907ED
:1013700020F080819181978386838B01EF01A417F0
:10138000B50760F0A41BB50B668177816A0F7B1FE0
:10139000C8010E94291380E090E011C060E070E075
:1013A000C8010E9432136E817F814A815B81C8012E
:1013B0000E94291380E090E002C08EEF9FEFDF9142
:1013C000CF911F910F910895AF92BF92CF92DF926C
:1013D000EF92FF920F931F93CF93DF935C017A01FB
:1013E0006901232BA1F0C62FD72F00E010E007C022
:1013F0000F5F1F4FCE0DDF1DC016D10641F0A701B4
:10140000BE01C5010E94A209892B91F36801C601A2
:10141000DF91CF911F910F91FF90EF90DF90CF90D0
:10142000BF90AF900895FC012085318537832683D6
:101430000895FC0181E090E0468157812085318547
:101440004217530711F080E090E00895FC014085B9
:10145000518526813781CA01821B930B421753079E
:1014600050F42481358140815181241B350B2F5F3D
:101470003F4F820F931F628173810E946E11CB01D7
:1014800008950F931F93CF93DF93EC010E9492096D
:101490008C01CE010E94260A9801281B390BC90134
:1014A000DF91CF911F910F9108958F929F92AF92EC
:1014B000BF92CF92DF92EF92FF920F931F93CF9341
:1014C000DF935C01062F172F7A016901FC018285E9
:1014D00080FF06C0C114D10451F480E090E025C023
:1014E000C5010E94410A8C159D05A0F71CC0C02FA4
:1014F000D12F00E010E0812C912CA701BE01C50185
:101500000E942F0999238CF01816190614F4882EBE
:10151000992E0F5F1F4FCE0DDF1DC016D10669F744
:10152000882D992D02C08FEF9FEFDF91CF911F91F2
:101530000F91FF90EF90DF90CF90BF90AF909F9072
:101540008F900895FC01208131813783268308958F
:101550000F931F93CF93DF93EC018B010E949209AD
:1015600080179107E0F04A815B81049FC001059FCD
:10157000900D149F900D11242E813F81820F931F97
:101580002C813D818217930740F0841B950B821BB1
:10159000930B28813981820F931F99878887DF9168
:1015A000CF911F910F910895CF93DF93DA01EC0152
:1015B000EA81FB81AF01AE17BF0708F4AD01D90185
:1015C0001296AE9F9001AF9F300DBE9F300D11243B
:1015D000241B350BFC0180819181820F931F0E9497
:1015E0002913DF91CF910895CF93DF930097B1F046
:1015F000DC01ED91FC91309789F0EC0180819181C3
:10160000009731F00E94A012E881F98111821082C6
:10161000888199810E94A01219821882DF91CF914E
:101620000895AF92BF92CF92DF92EF92FF920F9305
:101630001F93CF93DF9300D0CDB7DEB77C016B0152
:101640005A018CE090E00E9408128C019A838983F1
:10165000892B41F18FEFE81AF80AB601C7010E9401
:10166000EC11F80191838083009729F4CE01019653
:101670000E94F40A14C0F8019783868391878087BB
:10168000EC9C9001ED9C300DFC9C300D1124820FE0
:10169000931F95838483D382C282B386A286898175
:1016A0009A8102C080E090E00F900F90DF91CF917F
:1016B0001F910F91FF90EF90DF90CF90BF90AF9070
:1016C00008958F929F92AF92BF92CF92DF92EF9246
:1016D000FF920F931F93CF93DF93EC017B01142FA5
:1016E00059010E948C0085E2E816F10471F0E8E2ED
:1016F000EE16F10481F0FBE2EF16F10491F40F2EE7
:10170000FAE28F2E912CF02D0EC00F2EF4E28F2EC8
:10171000912CF02D08C00F2EF7E28F2E912CF02D7A
:1017200002C0812C912CF401808121E030E069011C
:10173000012E02C0CC0CDD1C0A94E2F78C298083B8
:101740000130A1F040F0023019F0033061F017C011
:101750000E94A90003C060E070E0CB01F701208186
:10176000C22AC0820FC00E94A90003C060E070E0DE
:10177000CB01F7012081C094C222C08203C060E087
:1017800070E0CB0199828882FB82EA821C836D83A0
:101790007E838F8398870987BB86AA86CE01DF91D7
:1017A000CF911F910F91FF90EF90DF90CF90BF905E
:1017B000AF909F908F900895CF93DF93EC0169874E
:1017C000613001F158F0623019F06330A9F028C09F
:1017D0000E94A9006D837E838F839887EA81FB81B5
:1017E000208181E090E00C8002C0880F991F0A944C
:1017F000E2F7822B808314C00E94A9006D837E8350
:101800008F839887EA81FB81208181E090E00C80C2
:1018100002C0880F991F0A94E2F780958223808383
:10182000DF91CF910895CF92DF92EF92FF920F93C5
:101830001F93CF93DF93FC0191859250923070F506
:10184000EF010E94A9000D811E812F8138856B0157
:101850007C01C01AD10AE20AF30A970186014A857F
:101860005B856A01E12CF12C0C151D052E053F0549
:10187000A8F0EA81FB81208141E050E00C8002C0A9
:10188000440F551F0A94E2F724272083398521E06D
:10189000232729876D837E838F839887DF91CF915C
:1018A0001F910F91FF90EF90DF90CF9008950F93CD
:1018B000FC0101E26003C001112464E670E00E94B3
:1018C0008211061B21E030E040E050E060E070E073
:1018D00080E090E00E94B5110E94A511DF01AA5B93
:1018E000BF4FAC91AA2341F020953095409550957B
:1018F000609570958095909503E00E94B5112460E5
:10190000DF01DC96EF5BFF4F2D9308E00E94D011C2
:10191000AE17BF07C9F70F9108958A5B9F4FFC016F
:1019200060830895FC01962F662314F497E0960FC8
:10193000959595959595292F990F330BDF01A20F5A
:10194000B31FAF5BBF4F67781CF46150686F6F5F68
:1019500041E050E002C0440F551F6A95E2F72E0F98
:101960003F1FF901EF5BFF4F8081482B4C93089597
:10197000FC0199E76902912D11249595959595950E
:10198000959567FD939582E2989F60191124962F93
:10199000362F662314F437E0360F35953595359597
:1019A000232F330F330BDF01A20FB31FAF5BBF4FEA
:1019B00097781CF49150986F9F5F41E050E002C00F
:1019C000440F551F9A95E2F740952E0F3F1FF901DE
:1019D000EF5BFF4F808148234C9308950F931F9333
:1019E000CF93DF93AC01EB018C01065B1F4FE3E06B
:1019F000F0E031969E01ADECBCEC0E9496119695FC
:101A0000879596958795969587959C01220F331F0C
:101A1000880F991F880F991F880F991F820F931F96
:101A2000DE01A81BB90BA25ABC4F8C91D8018D9333
:101A30008D019E01ADECBCEC0E949611EC01D69597
:101A4000C795D695C795D695C795209721F4E630CA
:101A5000F1052CF00EC0E630F10559F60AC0E95B3D
:101A6000FF4FE40FF51F435B5F4F1192E417F5073B
:101A7000E1F7DF91CF911F910F910895FC01E35B96
:101A8000FF4F2081262B2083369761708081682B41
:101A900060830895FC01E35BFF4F262F2095308182
:101AA000232320833697617060958081682360834B
:101AB00008951F93CF93DF93AB01FC01E95BFF4FC8
:101AC000EC01C65BDF4F9081192F11709A01ADECCC
:101AD000BCEC0E949611969587959695879596955C
:101AE00087959C01220F331F880F991F880F991F1C
:101AF000880F991F820F931FDA01A81BB90BA25AF6
:101B0000BC4F9C91912B91939A01ADECBCEC0E943F
:101B10009611AC015695479556954795569547951C
:101B2000EC17FD0781F6DF91CF911F910895860F85
:101B3000911DFC01E95BFF4F8081816080830895E6
:101B40002BEA629F212D11242695322F330F230F6C
:101B5000621B860F911DFC01E95BFF4F80818E7F28
:101B600080830895FC0170E0DC01A61BB70BA65B27
:101B7000BF4F9C919E7F9C936E0F7F1FFB01E95B83
:101B8000FF4F8081816080830895FC0160FF03C066
:101B900080818460808361FF03C080818061808355
:101BA00062FF03C082858260828763FF03C08489ED
:101BB0008260848B64FF09C0868D8260868F80A5D9
:101BC000826080A782A9826082AB0895FC01908127
:101BD000946090830895FC019081906190830895B2
:101BE000FC019285926092870895FC01948992602D
:101BF000948B0895FC01868D8260868F80A582601B
:101C000080A782A9826082AB0895FC0160FF03C0B7
:101C100080818B7F808361FF03C080818F7E808382
:101C200062FF03C082858D7F828763FF03C0848942
:101C30008D7F848B64FF09C0868D8D7F868F80A504
:101C40008D7F80A782A98D7F82AB0895FC01908152
:101C50009B7F90830895FC0190819F7E90830895DF
:101C6000FC0192859D7F92870895FC0194899D7F58
:101C7000948B0895FC01868D8D7F868F80A58D7F46
:101C800080A782A98D7F82AB0895AF92BF92CF9239
:101C9000DF92EF92FF920F931F93CF93DF930F2E5C
:101CA000F8EFAF2EF02DA40E25E530E07901062ED9
:101CB00002C0EE0CFF1C0A94E2F72A2D30E0F90175
:101CC000EE0FFF1FEE0FFF1F2E0F3F1FF901E05019
:101CD000FF4F008110E0E0E0F0E0C0E0D0E070E015
:101CE00041E050E0DB019A010E2E02C0220F331FAB
:101CF0000A94E2F7202331236F01C60ED71E02C0DB
:101D0000220F331FCA94E2F7C22BD32B3196E8304F
:101D1000F10541F7BE2CB094FC0121812B213E2D11
:101D20003D7FE32EE0943081E322EC2AFC01E08247
:101D30002D2BFC0121832A2D30E07901EE0CFF1CB4
:101D4000EE0CFF1C2E0D3F1DA9014F5F5E4F7A0167
:101D50008C010896C1E0D0E026C09E01042E02C08E
:101D6000220F331F0A94E2F72E233F236A01CA0E83
:101D7000DB1E02C0220F331FCA94E2F7622B732BC3
:101D80004F5F5F4F4830510541F7F80123812B2108
:101D900032813B21362B3283272B23830E5F1F4F4B
:101DA0000817190751F0F70121917F01E22FF0E0A8
:101DB00040E050E060E070E0D0CFDF91CF911F9124
:101DC0000F91FF90EF90DF90CF90BF90AF9008956C
:101DD00023E0260F622F6170269530E0F901EE0FA7
:101DE000FF1F220F331F220F331F220F331F2E0F0F
:101DF0003F1F820F931F0E94450E0895DF92EF92BE
:101E0000FF920F931F93CF93DF937C01FA01C62FAC
:101E1000D0E04081442331F1C930D1050CF047C0F6
:101E20000F2EF3E0DF2EF02DD60E8F010F5F1F4F28
:101E300021962D2D269530E0C901880F991F220F7C
:101E4000331F220F331F220F331F820F931F6D2D5D
:101E500061708E0D9F1D0E94450EF80141918F010A
:101E6000411104C0C930D10534F021C0D394C93028
:101E7000D105F1F61CC01C2F1D5F612F6170212F51
:101E8000269530E0C901880F991F220F331F220FBA
:101E9000331F220F331F820F931F40E28E0D9F1DB1
:101EA0000E94450E21961F5FC930D10531F7DF91A1
:101EB000CF911F910F91FF90EF90DF9008951F93A6
:101EC000CF93DF93A62F21E030E002C0220F331F13
:101ED0006A95E2F7122F1095E42FF0E0E25AFC4FDA
:101EE000608170E0FC01319641E050E0C1E0D0E05B
:101EF0009E01042E02C0220F331F0A94E2F726230C
:101F00003723042E02C0359527950A94E2F70A2E4E
:101F100002C0220F331F0A94E2F790819123292BEC
:101F200021934F5F5F4F4830510511F7DF91CF91FB
:101F30001F910895EF92FF920F931F93CF93DF931A
:101F40008C017B019B01ADECBCEC0E949611EC0175
:101F5000D695C795D695C795D695C7959E01220F5C
:101F6000331FCE01880F991F880F991F880F991F63
:101F7000820F931FA701481B590B60E0C8010A9606
:101F80000E945F0F9E01ADECBCEC0E9496119695ED
:101F9000879596958795969587959C01220F331F77
:101FA000880F991F880F991F880F991F820F931F01
:101FB000AE01481B590B62E0C8010E945F0F9701F8
:101FC0003695279536952795ABE7B4E10E94961193
:101FD000AC01569547959A01ADECBCEC0E94961168
:101FE0009695879596958795969587959C01220F4E
:101FF000331F880F991F880F991F880F991F820F11
:10200000931F481B590B64E0C8010E945F0FDF91CA
:10201000CF911F910F91FF90EF900895FC01E95B24
:10202000FF4FAC01465B5F4F21912EBD0DB407FE03
:10203000FDCFE417F507C1F7FC01E35BFF4F2081FB
:102040002695269526952EBD0DB407FEFDCFFC01E5
:10205000E65BFF4F20812EBD0DB407FEFDCFFC01D6
:10206000E55BFF4F20812EBD0DB407FEFDCFFC01C7
:10207000E45BFF4F80818EBD0DB407FEFDCF84E091
:1020800090E01EBC0DB407FEFDCF0197D1F780ECA8
:102090008EBD0DB407FEFDCF299A199BFECF29985E
:1020A0000895AC014F5B5F4FBC016B5B7F4FFA0142
:1020B00021912EBD0DB407FEFDCFE617F707C1F73E
:1020C000FC0134ADEB5BFF4F2081232B2EBD0DB403
:1020D00007FEFDCFFC01FD9681918EBD0DB407FE7C
:1020E000FDCF4E175F07C1F71EBC0DB407FEFDCF35
:1020F00080EC8EBD0DB407FEFDCF1EBC0DB407FEF7
:10210000FDCF299A199BFECF29980895FC019C01C7
:10211000265F3F4F91919EBD0DB407FEFDCFE217A4
:10212000F307C1F71EBC0DB407FEFDCF6EBD0DB4A5
:1021300007FEFDCF299A199BFECF299808958EBDE1
:102140000DB407FEFDCF0895299A199BFECF29985B
:102150000895CF92DF92EF92FF920F931F93CF9348
:102160008C010E94BA00C0909403D0909503E09037
:102170009603F0909703DC01CB018C199D09AE0901
:10218000BF09843F9140A105B10508F440C02A9AD7
:10219000C0919303C630D0F42C2F30E061E070E0A2
:1021A0000C2E02C0660F771F0A94E2F7C901880F50
:1021B000991F220F331F220F331F220F331F820F4D
:1021C000931F800F911F0E9486100FC0C63039F4F4
:1021D000C8010E94511087E0809393030DC0C7305F
:1021E00021F4C8010E940E1005C0CF5FC093930375
:1021F000C83011F4109293030E94BA0060939403C4
:102200007093950380939603909397032A98CF91A8
:102210001F910F91FF90EF90DF90CF9008950F9353
:102220001F93CF93DF93CDB7DEB7CE54D1090FB64E
:10223000F894DEBF0FBECDBF8C01CE0101962EE417
:10224000FC0111922A95E9F74BE653E060E00E9409
:10225000FE0E219A229A239A259A2A9A29988EE785
:102260008CBD0E948C0004C0CE0101960E94A91072
:102270000E94A9006838734181059105A8F34AE6D8
:1022800053E060E0CE0101960E94FE0E2F968FADC6
:102290002F9781682F968FAF2F9729968FAD29970B
:1022A000816029968FAF299760E0CE0101960E9448
:1022B000570C8EE4FE013196D80101900D928A955B
:1022C000E1F7C801C25BDF4F0FB6F894DEBF0FBE67
:1022D000CDBFDF91CF911F910F910895AA1BBB1B1A
:1022E00051E107C0AA1FBB1FA617B70710F0A61B16
:1022F000B70B881F991F5A95A9F780959095BC0137
:10230000CD01089597FB072E16F4009407D077FDB2
:1023100009D00E946E1107FC05D03EF4909581957E
:102320009F4F0895709561957F4F0895A29FB001CA
:10233000B39FC001A39F700D811D1124911DB29FF9
:10234000700D811D1124911D0895609570958095E3
:10235000909530954095509521953F4F4F4F5F4F49
:102360006F4F7F4F8F4F9F4F08950F93083090F01E
:10237000982F872F762F652F542F432F322F222708
:102380000850F4CF220F331F441F551F661F771FBD
:10239000881F991F0A95B2F70F91089597FB10F8BF
:1023A000169400080F93083098F00850232F342F0C
:1023B000452F562F672F782F892F902DF4CF059416
:1023C000979587957795679557954795379527956D
:1023D0000A95AAF70F9108950F931F93CF93DF9358
:1023E000869F8001879F100D969F100D1124C801B4
:1023F0000E940812EC01009729F0A80160E070E04B
:102400000E943213CE01DF91CF911F910F91089559
:102410000F931F93CF93DF938230910510F482E0E6
:1024200090E0E0919A03F0919B0320E030E0A0E07F
:10243000B0E0309719F14081518102811381481732
:102440005907C8F08417950769F4109731F0129670
:102450000C93129713961C9327C000939A03109322
:102460009B0322C02115310519F04217530718F4B8
:102470009A01BD01EF01DF01F801DBCF2115310524
:10248000F9F0281B390B2430310580F48A819B81B7
:102490006115710521F0FB019383828304C0909341
:1024A0009B0380939A03FE01329644C0FE01E20F23
:1024B000F31F8193919322503109398328833AC0C5
:1024C0002091980330919903232B41F420915A03D2
:1024D00030915B0330939903209398032091580324
:1024E000309159032115310541F42DB73EB7409184
:1024F0005C0350915D03241B350BE0919803F09130
:102500009903E217F307A0F42E1B3F0B2817390796
:1025100078F0AC014E5F5F4F2417350748F04E0F3F
:102520005F1F50939903409398038193919302C046
:10253000E0E0F0E0CF01DF91CF911F910F9108957E
:10254000CF93DF93009709F481C0FC013297138287
:102550001282A0919A03B0919B03109781F420817D
:102560003181820F931F209198033091990328178E
:10257000390751F5F0939903E093980367C0ED0193
:1025800020E030E0CE17DF0740F44A815B819E01F6
:1025900041155105F1F0EA01F5CFD383C2834081A3
:1025A0005181840F951FC817D90759F488819981E3
:1025B000840F951F0296918380838A819B819383E8
:1025C00082832115310529F4F0939B03E0939A034C
:1025D0003DC0E901FB83EA8349915991C40FD51F9E
:1025E000EC17FD0761F480819181840F951F02969D
:1025F000E90199838883828193819B838A83E0E0C8
:10260000F0E012968D919C911397009719F0FD01BF
:10261000DC01F7CF8D919C9111979D012E5F3F4F6B
:10262000820F931F2091980330919903281739073F
:1026300069F4309729F410929B0310929A0302C018
:1026400013821282B0939903A0939803DF91CF91E4
:102650000895FB01DC0102C001900D9241505040F1
:10266000D8F70895DC0101C06D9341505040E0F768
:062670000895F894FFCF6D
:102676000871EE7F00C0FFCE11021073CF310484C3
:1026860071DE190100554551004051541500F6DE22
:102696007BEF0D8073CE3900000000000042082158
:1026A6008400C618638C01CE39E79C03DE7BEFBD40
:1026B60007FEFFFFFF0FC0FFFFFF0F00F8FFFF0F32
:1026C6000000FFFF0F0000E0FF0F000000FC0F00FE
:1026D6000000800F0000000000AAAAAAAA0A54550A
:1026E6005555050071FF3B0200000000000821045B
:1026F6000002945200000094FAEA2B0588130E3962
:1027060002C64444640C4C2AA2260B0C110000009D
:102716001011421004044108110100A9AE12000074
:10272600219F10000000C0100100001F00000000E3
:1027360000180300808888005CCC754607882184D1
:1027460010075C8488880F3E220846071053E92349
:10275600047E7810460798082F46073E84881002A4
:102766005C8C2E46075C8C1E22038031C0180080CC
:1027760031C01001101141100400F8E003000441BB
:102786001011015C848800025C84B656075C8CF1EB
:10279600C7085E8C2FC6075C0C2144074E8A31A6FB
:1027A600037E082F840F7E082F84005C0C3D4607AD
:1027B600628C3FC6081C2184100738420825036234
:1027C6002AA3A408420821840FE2AE35C608629CFB
:1027D60035C7085C8C3146075E8C2F84005C8CB153
:1027E600260B5E8CAFA4085C0C0E46073E218410B7
:1027F60002628C314607628C312A02628CB556051C
:10280600625444C50862548410023E4444840F9CBA
:102816001042080740100441001C42082107888A1C
:10282600000000000000800F04410000000070D08E
:10283600470F426833C607007021440720B4394663
:10284600070070F107070093E20801808FD1430764
:10285600426833C608083084100710600825034212
:10286600486594040C218410070058B5C608006812
:1028760033C60800703146070078F1850000B0D9EC
:10288600430800683384000070C1C1078438424899
:1028960006008831660B0088312A020088B1560589
:1028A60000888AA8080088D1430700F888880F1096
:1028B60021821004082180100204218810010010D2
:1028C600150100000000000000009C032000EE241B
:1028D600D6B63CBAFA26FEBE003000504F574552D7
:0428E600204F4E0031
:00000001FF
